:1007940057656C636F6D6520524F530057454C434A
:1007A4004F4D4520524F530053454C2E204445563F
:1007B4002E20312D340025640A0044455649434512
:0607C4005F31203A200025
:0608930004360000000025
:0607F100D2A37F037E008D
:1007F700E4FDFCC3ED9FEC9E5015E4FBFA0BBB0038
:0F080700010AEB647F4A70F50DBD00010C80E41F
:0108160022BF
:0E086C00758920759850758DFDD28ED2992217
:080884008F993099FDC2992201
:07088C00EF2430FF02088495
:09087A003098FDAF99C2987E0090
:010883002252
:10075E00E4FF74222FF8E6640D601F3098FD7422BA
:10076E002FF8A699C29874222FF8E6FE640D600A3F
:10077E008E993099FDC2990F80D874222FF8E4F625
:05078E00FB7A00792256
:010793002243
:100853007F281208177F0C1208177F021208177FD0
:09086300061208177F01020817B4
:10081700A907E954F0F5A0C2A21207F1C2A3E9C4DF
:0E08270054F0F5A0C2A2D2A31207F7C2A3227A
:10083500A907E954F0F5A0D2A21207F1C2A3E9C4B1
:0E08450054F0F5A0D2A2D2A31207F7C2A3224C
:06071C008B0C8A0D890E12
:10072200E4F50FF510AB0CAA0DA90E851082850F0A
:100732008312035FFF6024120835AB0CAA0DA90EC9
:10074200E51024FFFFE50F34FF8F82F583E41203E7
:0B0752008C0510E51070CE050F80CA6A
:01075D002279
:0405F100AB07AA06A4
:1005F500900000EB4A60317C007D0AAF03AE021229
:1006050003AEED2430FFE43CFEAD82ED25E0240C85
:10061500F8A60608A6077C007D0AAF03AE02120302
:10062500AEAA06AB07A380CBE582158270021583BF
:10063500C3E5839400402DAF82EF25E0240CF80834
:10064500E6FF120884AF82EF25E0240CF808E6FFE8
:100655001208357FF47E011207F7E582158270D006
:04066500158380CCAD
:01066900226E
:10066A00E4FDED6419605A20A02630A0FDED601D5E
:10067A00D39408500DE53725E0F537E53633F536DE
:10068A00800BE53925E0F539E53833F5380D80D2A8
:10069A0020A1CF30A1FDED6025D394085011E53794
:1006AA0025E0FFE53633F536EF4401F537800FE5EF
:1006BA003925E0FFE53833F538EF4401F5390D8087
:0706CA00A17B007A007936E4
:0106D1002206
:1006D200D292C291C293C290EF139294EFC313FECF
:1006E200139295EEC3131392967F017E001207F7C1
:1006F200D2911207F7D2901207F7C291C2902092BC
:10070200FD3092FDD2937F017E001207F7AF808EFB
:090712000C8F0D7B007A00790CBC
:01071B0022BB
:1005690012086C12085312066A120403642045F03B
:10057900707590000212042EFFAEF0E4FCFD7BB60C
:100589007ADAF9F8C3120466705D7BFF7A07799409
:100599001200657BFF7A0779A012071C7FC0120839
:1005A900177BFF7A0779AC12071C7F071206D28BDB
:1005B900088A09890A120403F51085F00F7BFF7A6E
:1005C9000779BA1200657F801208177BFF7A0779CD
:1005D900BE12071C7FCA1208177FFF7E001205F1A1
:0705E9007F267E021207F7D6
:0105F00022E8
:030000000204DD1A
:0C04DD00787FE4F6D8FD75813902052413
:10035F00BB010CE58229F582E5833AF583E0225053
:10036F0006E92582F8E622BBFE06E92582F8E2229D
:0D037F00E58229F582E5833AF583E49322B7
:10038C00F8BB010DE58229F582E5833AF583E8F0A7
:10039C00225006E92582C8F622BBFE05E92582C853
:0203AC00F2223B
:1003AE00BC000BBE0029EF8DF084FFADF022E4CC33
:1003BE00F875F008EF2FFFEE33FEEC33FCEE9DECFC
:1003CE00984005FCEE9DFE0FD5F0E9E4CEFD22ED42
:1003DE00F8F5F0EE8420D21CFEADF075F008EF2F8C
:1003EE00FFED33FD4007985006D5F0F222C398FD7D
:0503FE000FD5F0EA221A
:10040300BB010A89828A83E0F5F0A3E022500687C4
:10041300F009E71922BBFE07E3F5F009E319228986
:0B042300828A83E493F5F074019322B9
:10042E00BB0110E58229F582E5833AF583E0F5F00C
:10043E00A3E0225009E92582F886F008E622BBFEE9
:10044E000AE92582F8E2F5F008E222E5832AF5832F
:08045E00E993F5F0A3E99322F4
:10046600EB9FF5F0EA9E42F0E99D42F0EC6480C80D
:0604760064809845F022AD
:10000300E51B240FF8E6051B22780C300702780F56
:10001300E475F0011204A702047C2000EB7F2ED2CA
:10002300008018EF540F2490D43440D4FF30040BD5
:10003300EF24BFB41A0050032461FFE51C600215CE
:100043001C051FE51F7002051E30070D780CE475B3
:10005300F0011204A7EF0204950207CA7403D20742
:100063008003E4C207F51B8B0C8A0D890EE4F51C93
:10007300F51EF51FE51C60077F2012003E80F57515
:100083001DFFC201C200C202C203C205C206C208EA
:1000930012000CFF700D3007057F0012004FAF1FD9
:1000A300AE1E22B4255FC2D5C20412000CFF24D0B9
:1000B300B40A00501A75F00A781C30D50508B6FF4B
:1000C3000106C6A426F620D5047002D20380D924E3
:1000D300CFB41A00EF5004C2E5D20402024FD2019A
:1000E30080C6D20080C0D20280BCD2D580BAD205ED
:1000F30080B47F2012003E2002077401B51C00402B
:10010300F1120003FF12003E020077D208D20680EC
:1001130095120003FB120003FA120003F94A4B7015
:100123000679207A037BFF20022EE51C602A7E00DD
:100133008E8275830012035F60060EEE651D70F0FC
:10014300C2D5EBC0E0EAC0E0E9C0E0EE120296D00F
:10015300E0F9D0E0FAD0E0FB12047CFF60AAEBC028
:10016300E0EAC0E0E9C0E012003ED0E02401F9D0AB
:10017300E03400FAD0E0FBE51D0460DCD51DD98036
:10018300877BFF7A027992D202809C791080027970
:1001930008C206C2088008D2D5790A8004790AC247
:1001A300D5E51D047002F51DE4FAFDFEFF12000300
:1001B300FC7B08200113120003FD7B1030000A12A0
:1001C3000003FE120003FF7B20EC3382D592D5504F
:1001D30013C3E43000069FFFE49EFEE42001039D69
:1001E300FDE49CFCE4CBF8C201EC700CCFCECDCC8B
:1001F300E824F8F870F38017C3EF33FFEE33FEED16
:1002030033FDEC33FCEB33FB994002FB0FD8E9EBF6
:10021300300105F8D0E0C448B201C0E00AEC4D4E0D
:100223004F78207B0070C2EAB51D0040BCC0E012CD
:100233000298D0F0D0E0200104C4C0E0C4B201C0F1
:10024300F0120027D0F0D5F0EB0200771204B701CB
:100253001453018E5800E54C00E14201924F019A7C
:0F02630044019A4900FA4301A0550184460184E1
:100272004501844703405000E92D00ED2E01102B6B
:1002820000F123010E2003292A00A94800000108D9
:100292003F3F3F00790AA2D5200314300509B91067
:1002A200020404B9080104A2D52006025001042068
:1002B20002689202B51C005034C0E07F203003195E
:1002C2007F30A20272067205500F1202EFC202C202
:1002D20006C205C2087F30800F300503E9C0E01274
:1002E200003E300503D0E0F9D0E0B51CCC30051754
:1002F2007F30B9100C12003E7F583004077F78809F
:1003020003B9080312003E3002057F2D02003E7F32
:10031200202008F87F2B2006F322920280CF286E3D
:10032200756C6C2900D2011200033001F8C2017809
:100332001C30D50108F60200A92D5043495812007D
:10034200032403B405004001E490033B9312002F01
:0D035200743A12002FD203751C0402018EB4
:1004E900020569E493A3F8E493A34003F68001F2BB
:1004F90008DFF48029E493A3F85407240CC8C33314
:10050900C4540F4420C8834004F456800146F6DFE2
:10051900E4800B0102040810204080900893E47ED7
:10052900019360BCA3FF543F30E509541FFEE493D7
:10053900A360010ECF54C025E060A840B8E493A39E
:10054900FAE493A3F8E493A3C8C582C8CAC583CAC9
:10055900F0A3C8C582C8CAC583CADFE9DEE780BE81
:01089900005E
:10047C00BB010689828A83E0225002E722BBFE027E
:09048C00E32289828A83E49322B1
:10049500BB010689828A83F0225002F722BBFE0146
:0204A500F32240
:1004A700FAE6FB0808E6F925F0F618E6CA3AF62256
:1004B700D083D082F8E4937012740193700DA3A3D4
:1004C70093F8740193F5828883E4737402936860E8
:0604D700EFA3A3A380DFE8
:1007CA00EFB40A07740D1207D5740A309811A89964
:1007DA00B8130CC2983098FDA899C298B811F6308F
:0707EA0099FDC299F5992267
:00000001FF
